{"contracts/dutchauction.sol":{"DutchAuction":{"abi":[{"inputs":[{"internalType":"uint256","name":"_reservePrice","type":"uint256"},{"internalType":"uint256","name":"_numBlocksAuctionOpen","type":"uint256"},{"internalType":"uint256","name":"_offerPriceDecrement","type":"uint256"}],"stateMutability":"nonpayable","type":"constructor"},{"inputs":[],"name":"auctionEnded","outputs":[{"internalType":"bool","name":"","type":"bool"}],"stateMutability":"view","type":"function"},{"inputs":[],"name":"currentPrice","outputs":[{"internalType":"uint256","name":"","type":"uint256"}],"stateMutability":"view","type":"function"},{"inputs":[],"name":"endBlock","outputs":[{"internalType":"uint256","name":"","type":"uint256"}],"stateMutability":"view","type":"function"},{"inputs":[],"name":"numBlocksAuctionOpen","outputs":[{"internalType":"uint256","name":"","type":"uint256"}],"stateMutability":"view","type":"function"},{"inputs":[],"name":"offerPriceDecrement","outputs":[{"internalType":"uint256","name":"","type":"uint256"}],"stateMutability":"view","type":"function"},{"inputs":[],"name":"placeBid","outputs":[],"stateMutability":"payable","type":"function"},{"inputs":[],"name":"reservePrice","outputs":[{"internalType":"uint256","name":"","type":"uint256"}],"stateMutability":"view","type":"function"},{"inputs":[],"name":"seller","outputs":[{"internalType":"address payable","name":"","type":"address"}],"stateMutability":"view","type":"function"},{"inputs":[],"name":"startBlock","outputs":[{"internalType":"uint256","name":"","type":"uint256"}],"stateMutability":"view","type":"function"}],"evm":{"bytecode":{"linkReferences":{},"object":"608060405234801561001057600080fd5b5060405161087738038061087783398181016040528101906100329190610102565b336000806101000a81548173ffffffffffffffffffffffffffffffffffffffff021916908373ffffffffffffffffffffffffffffffffffffffff1602179055508260018190555081600281905550806003819055504360048190555060025460045461009e9190610184565b6005819055506000600760006101000a81548160ff0219169083151502179055505050506101b8565b600080fd5b6000819050919050565b6100df816100cc565b81146100ea57600080fd5b50565b6000815190506100fc816100d6565b92915050565b60008060006060848603121561011b5761011a6100c7565b5b6000610129868287016100ed565b935050602061013a868287016100ed565b925050604061014b868287016100ed565b9150509250925092565b7f4e487b7100000000000000000000000000000000000000000000000000000000600052601160045260246000fd5b600061018f826100cc565b915061019a836100cc565b92508282019050808211156101b2576101b1610155565b5b92915050565b6106b0806101c76000396000f3fe6080604052600436106100865760003560e01c8063864333741161005957806386433374146101375780639d1b464a14610162578063d3642a881461018d578063db2e1eed146101b8578063ecfc7ecc146101e357610086565b8063083c63231461008b57806308551a53146100b65780633103ea62146100e157806348cd4cb11461010c575b600080fd5b34801561009757600080fd5b506100a06101ed565b6040516100ad919061040b565b60405180910390f35b3480156100c257600080fd5b506100cb6101f3565b6040516100d89190610467565b60405180910390f35b3480156100ed57600080fd5b506100f6610217565b604051610103919061040b565b60405180910390f35b34801561011857600080fd5b5061012161021d565b60405161012e919061040b565b60405180910390f35b34801561014357600080fd5b5061014c610223565b604051610159919061049d565b60405180910390f35b34801561016e57600080fd5b50610177610236565b604051610184919061040b565b60405180910390f35b34801561019957600080fd5b506101a261023c565b6040516101af919061040b565b60405180910390f35b3480156101c457600080fd5b506101cd610242565b6040516101da919061040b565b60405180910390f35b6101eb610248565b005b60055481565b60008054906101000a900473ffffffffffffffffffffffffffffffffffffffff1681565b60025481565b60045481565b600760009054906101000a900460ff1681565b60065481565b60035481565b60015481565b60055443111561028d576040517f08c379a000000000000000000000000000000000000000000000000000000000815260040161028490610515565b60405180910390fd5b600760009054906101000a900460ff16156102dd576040517f08c379a00000000000000000000000000000000000000000000000000000000081526004016102d490610581565b60405180910390fd5b600354436002546004546102f191906105d0565b6102fb9190610604565b6103059190610638565b60015461031291906105d0565b60068190555060065434106103a8576001600760006101000a81548160ff02191690831515021790555060008054906101000a900473ffffffffffffffffffffffffffffffffffffffff1673ffffffffffffffffffffffffffffffffffffffff166108fc349081150290604051600060405180830381858888f193505050501580156103a2573d6000803e3d6000fd5b506103f0565b3373ffffffffffffffffffffffffffffffffffffffff166108fc349081150290604051600060405180830381858888f193505050501580156103ee573d6000803e3d6000fd5b505b565b6000819050919050565b610405816103f2565b82525050565b600060208201905061042060008301846103fc565b92915050565b600073ffffffffffffffffffffffffffffffffffffffff82169050919050565b600061045182610426565b9050919050565b61046181610446565b82525050565b600060208201905061047c6000830184610458565b92915050565b60008115159050919050565b61049781610482565b82525050565b60006020820190506104b2600083018461048e565b92915050565b600082825260208201905092915050565b7f41756374696f6e20457870697265640000000000000000000000000000000000600082015250565b60006104ff600f836104b8565b915061050a826104c9565b602082019050919050565b6000602082019050818103600083015261052e816104f2565b9050919050565b7f41756374696f6e2068617320656e646564000000000000000000000000000000600082015250565b600061056b6011836104b8565b915061057682610535565b602082019050919050565b6000602082019050818103600083015261059a8161055e565b9050919050565b7f4e487b7100000000000000000000000000000000000000000000000000000000600052601160045260246000fd5b60006105db826103f2565b91506105e6836103f2565b92508282019050808211156105fe576105fd6105a1565b5b92915050565b600061060f826103f2565b915061061a836103f2565b9250828203905081811115610632576106316105a1565b5b92915050565b6000610643826103f2565b915061064e836103f2565b925082820261065c816103f2565b91508282048414831517610673576106726105a1565b5b509291505056fea264697066735822122000a6f2508ccfc0885a8f44e67b42c678644a8df5b41b00b917fcdfc53cc50cc064736f6c63430008120033","opcodes":"PUSH1 0x80 PUSH1 0x40 MSTORE CALLVALUE DUP1 ISZERO PUSH2 0x10 JUMPI PUSH1 0x0 DUP1 REVERT JUMPDEST POP PUSH1 0x40 MLOAD PUSH2 0x877 CODESIZE SUB DUP1 PUSH2 0x877 DUP4 CODECOPY DUP2 DUP2 ADD PUSH1 0x40 MSTORE DUP2 ADD SWAP1 PUSH2 0x32 SWAP2 SWAP1 PUSH2 0x102 JUMP JUMPDEST CALLER PUSH1 0x0 DUP1 PUSH2 0x100 EXP DUP2 SLOAD DUP2 PUSH20 0xFFFFFFFFFFFFFFFFFFFFFFFFFFFFFFFFFFFFFFFF MUL NOT AND SWAP1 DUP4 PUSH20 0xFFFFFFFFFFFFFFFFFFFFFFFFFFFFFFFFFFFFFFFF AND MUL OR SWAP1 SSTORE POP DUP3 PUSH1 0x1 DUP2 SWAP1 SSTORE POP DUP2 PUSH1 0x2 DUP2 SWAP1 SSTORE POP DUP1 PUSH1 0x3 DUP2 SWAP1 SSTORE POP NUMBER PUSH1 0x4 DUP2 SWAP1 SSTORE POP PUSH1 0x2 SLOAD PUSH1 0x4 SLOAD PUSH2 0x9E SWAP2 SWAP1 PUSH2 0x184 JUMP JUMPDEST PUSH1 0x5 DUP2 SWAP1 SSTORE POP PUSH1 0x0 PUSH1 0x7 PUSH1 0x0 PUSH2 0x100 EXP DUP2 SLOAD DUP2 PUSH1 0xFF MUL NOT AND SWAP1 DUP4 ISZERO ISZERO MUL OR SWAP1 SSTORE POP POP POP POP PUSH2 0x1B8 JUMP JUMPDEST PUSH1 0x0 DUP1 REVERT JUMPDEST PUSH1 0x0 DUP2 SWAP1 POP SWAP2 SWAP1 POP JUMP JUMPDEST PUSH2 0xDF DUP2 PUSH2 0xCC JUMP JUMPDEST DUP2 EQ PUSH2 0xEA JUMPI PUSH1 0x0 DUP1 REVERT JUMPDEST POP JUMP JUMPDEST PUSH1 0x0 DUP2 MLOAD SWAP1 POP PUSH2 0xFC DUP2 PUSH2 0xD6 JUMP JUMPDEST SWAP3 SWAP2 POP POP JUMP JUMPDEST PUSH1 0x0 DUP1 PUSH1 0x0 PUSH1 0x60 DUP5 DUP7 SUB SLT ISZERO PUSH2 0x11B JUMPI PUSH2 0x11A PUSH2 0xC7 JUMP JUMPDEST JUMPDEST PUSH1 0x0 PUSH2 0x129 DUP7 DUP3 DUP8 ADD PUSH2 0xED JUMP JUMPDEST SWAP4 POP POP PUSH1 0x20 PUSH2 0x13A DUP7 DUP3 DUP8 ADD PUSH2 0xED JUMP JUMPDEST SWAP3 POP POP PUSH1 0x40 PUSH2 0x14B DUP7 DUP3 DUP8 ADD PUSH2 0xED JUMP JUMPDEST SWAP2 POP POP SWAP3 POP SWAP3 POP SWAP3 JUMP JUMPDEST PUSH32 0x4E487B7100000000000000000000000000000000000000000000000000000000 PUSH1 0x0 MSTORE PUSH1 0x11 PUSH1 0x4 MSTORE PUSH1 0x24 PUSH1 0x0 REVERT JUMPDEST PUSH1 0x0 PUSH2 0x18F DUP3 PUSH2 0xCC JUMP JUMPDEST SWAP2 POP PUSH2 0x19A DUP4 PUSH2 0xCC JUMP JUMPDEST SWAP3 POP DUP3 DUP3 ADD SWAP1 POP DUP1 DUP3 GT ISZERO PUSH2 0x1B2 JUMPI PUSH2 0x1B1 PUSH2 0x155 JUMP JUMPDEST JUMPDEST SWAP3 SWAP2 POP POP JUMP JUMPDEST PUSH2 0x6B0 DUP1 PUSH2 0x1C7 PUSH1 0x0 CODECOPY PUSH1 0x0 RETURN INVALID PUSH1 0x80 PUSH1 0x40 MSTORE PUSH1 0x4 CALLDATASIZE LT PUSH2 0x86 JUMPI PUSH1 0x0 CALLDATALOAD PUSH1 0xE0 SHR DUP1 PUSH4 0x86433374 GT PUSH2 0x59 JUMPI DUP1 PUSH4 0x86433374 EQ PUSH2 0x137 JUMPI DUP1 PUSH4 0x9D1B464A EQ PUSH2 0x162 JUMPI DUP1 PUSH4 0xD3642A88 EQ PUSH2 0x18D JUMPI DUP1 PUSH4 0xDB2E1EED EQ PUSH2 0x1B8 JUMPI DUP1 PUSH4 0xECFC7ECC EQ PUSH2 0x1E3 JUMPI PUSH2 0x86 JUMP JUMPDEST DUP1 PUSH4 0x83C6323 EQ PUSH2 0x8B JUMPI DUP1 PUSH4 0x8551A53 EQ PUSH2 0xB6 JUMPI DUP1 PUSH4 0x3103EA62 EQ PUSH2 0xE1 JUMPI DUP1 PUSH4 0x48CD4CB1 EQ PUSH2 0x10C JUMPI JUMPDEST PUSH1 0x0 DUP1 REVERT JUMPDEST CALLVALUE DUP1 ISZERO PUSH2 0x97 JUMPI PUSH1 0x0 DUP1 REVERT JUMPDEST POP PUSH2 0xA0 PUSH2 0x1ED JUMP JUMPDEST PUSH1 0x40 MLOAD PUSH2 0xAD SWAP2 SWAP1 PUSH2 0x40B JUMP JUMPDEST PUSH1 0x40 MLOAD DUP1 SWAP2 SUB SWAP1 RETURN JUMPDEST CALLVALUE DUP1 ISZERO PUSH2 0xC2 JUMPI PUSH1 0x0 DUP1 REVERT JUMPDEST POP PUSH2 0xCB PUSH2 0x1F3 JUMP JUMPDEST PUSH1 0x40 MLOAD PUSH2 0xD8 SWAP2 SWAP1 PUSH2 0x467 JUMP JUMPDEST PUSH1 0x40 MLOAD DUP1 SWAP2 SUB SWAP1 RETURN JUMPDEST CALLVALUE DUP1 ISZERO PUSH2 0xED JUMPI PUSH1 0x0 DUP1 REVERT JUMPDEST POP PUSH2 0xF6 PUSH2 0x217 JUMP JUMPDEST PUSH1 0x40 MLOAD PUSH2 0x103 SWAP2 SWAP1 PUSH2 0x40B JUMP JUMPDEST PUSH1 0x40 MLOAD DUP1 SWAP2 SUB SWAP1 RETURN JUMPDEST CALLVALUE DUP1 ISZERO PUSH2 0x118 JUMPI PUSH1 0x0 DUP1 REVERT JUMPDEST POP PUSH2 0x121 PUSH2 0x21D JUMP JUMPDEST PUSH1 0x40 MLOAD PUSH2 0x12E SWAP2 SWAP1 PUSH2 0x40B JUMP JUMPDEST PUSH1 0x40 MLOAD DUP1 SWAP2 SUB SWAP1 RETURN JUMPDEST CALLVALUE DUP1 ISZERO PUSH2 0x143 JUMPI PUSH1 0x0 DUP1 REVERT JUMPDEST POP PUSH2 0x14C PUSH2 0x223 JUMP JUMPDEST PUSH1 0x40 MLOAD PUSH2 0x159 SWAP2 SWAP1 PUSH2 0x49D JUMP JUMPDEST PUSH1 0x40 MLOAD DUP1 SWAP2 SUB SWAP1 RETURN JUMPDEST CALLVALUE DUP1 ISZERO PUSH2 0x16E JUMPI PUSH1 0x0 DUP1 REVERT JUMPDEST POP PUSH2 0x177 PUSH2 0x236 JUMP JUMPDEST PUSH1 0x40 MLOAD PUSH2 0x184 SWAP2 SWAP1 PUSH2 0x40B JUMP JUMPDEST PUSH1 0x40 MLOAD DUP1 SWAP2 SUB SWAP1 RETURN JUMPDEST CALLVALUE DUP1 ISZERO PUSH2 0x199 JUMPI PUSH1 0x0 DUP1 REVERT JUMPDEST POP PUSH2 0x1A2 PUSH2 0x23C JUMP JUMPDEST PUSH1 0x40 MLOAD PUSH2 0x1AF SWAP2 SWAP1 PUSH2 0x40B JUMP JUMPDEST PUSH1 0x40 MLOAD DUP1 SWAP2 SUB SWAP1 RETURN JUMPDEST CALLVALUE DUP1 ISZERO PUSH2 0x1C4 JUMPI PUSH1 0x0 DUP1 REVERT JUMPDEST POP PUSH2 0x1CD PUSH2 0x242 JUMP JUMPDEST PUSH1 0x40 MLOAD PUSH2 0x1DA SWAP2 SWAP1 PUSH2 0x40B JUMP JUMPDEST PUSH1 0x40 MLOAD DUP1 SWAP2 SUB SWAP1 RETURN JUMPDEST PUSH2 0x1EB PUSH2 0x248 JUMP JUMPDEST STOP JUMPDEST PUSH1 0x5 SLOAD DUP2 JUMP JUMPDEST PUSH1 0x0 DUP1 SLOAD SWAP1 PUSH2 0x100 EXP SWAP1 DIV PUSH20 0xFFFFFFFFFFFFFFFFFFFFFFFFFFFFFFFFFFFFFFFF AND DUP2 JUMP JUMPDEST PUSH1 0x2 SLOAD DUP2 JUMP JUMPDEST PUSH1 0x4 SLOAD DUP2 JUMP JUMPDEST PUSH1 0x7 PUSH1 0x0 SWAP1 SLOAD SWAP1 PUSH2 0x100 EXP SWAP1 DIV PUSH1 0xFF AND DUP2 JUMP JUMPDEST PUSH1 0x6 SLOAD DUP2 JUMP JUMPDEST PUSH1 0x3 SLOAD DUP2 JUMP JUMPDEST PUSH1 0x1 SLOAD DUP2 JUMP JUMPDEST PUSH1 0x5 SLOAD NUMBER GT ISZERO PUSH2 0x28D JUMPI PUSH1 0x40 MLOAD PUSH32 0x8C379A000000000000000000000000000000000000000000000000000000000 DUP2 MSTORE PUSH1 0x4 ADD PUSH2 0x284 SWAP1 PUSH2 0x515 JUMP JUMPDEST PUSH1 0x40 MLOAD DUP1 SWAP2 SUB SWAP1 REVERT JUMPDEST PUSH1 0x7 PUSH1 0x0 SWAP1 SLOAD SWAP1 PUSH2 0x100 EXP SWAP1 DIV PUSH1 0xFF AND ISZERO PUSH2 0x2DD JUMPI PUSH1 0x40 MLOAD PUSH32 0x8C379A000000000000000000000000000000000000000000000000000000000 DUP2 MSTORE PUSH1 0x4 ADD PUSH2 0x2D4 SWAP1 PUSH2 0x581 JUMP JUMPDEST PUSH1 0x40 MLOAD DUP1 SWAP2 SUB SWAP1 REVERT JUMPDEST PUSH1 0x3 SLOAD NUMBER PUSH1 0x2 SLOAD PUSH1 0x4 SLOAD PUSH2 0x2F1 SWAP2 SWAP1 PUSH2 0x5D0 JUMP JUMPDEST PUSH2 0x2FB SWAP2 SWAP1 PUSH2 0x604 JUMP JUMPDEST PUSH2 0x305 SWAP2 SWAP1 PUSH2 0x638 JUMP JUMPDEST PUSH1 0x1 SLOAD PUSH2 0x312 SWAP2 SWAP1 PUSH2 0x5D0 JUMP JUMPDEST PUSH1 0x6 DUP2 SWAP1 SSTORE POP PUSH1 0x6 SLOAD CALLVALUE LT PUSH2 0x3A8 JUMPI PUSH1 0x1 PUSH1 0x7 PUSH1 0x0 PUSH2 0x100 EXP DUP2 SLOAD DUP2 PUSH1 0xFF MUL NOT AND SWAP1 DUP4 ISZERO ISZERO MUL OR SWAP1 SSTORE POP PUSH1 0x0 DUP1 SLOAD SWAP1 PUSH2 0x100 EXP SWAP1 DIV PUSH20 0xFFFFFFFFFFFFFFFFFFFFFFFFFFFFFFFFFFFFFFFF AND PUSH20 0xFFFFFFFFFFFFFFFFFFFFFFFFFFFFFFFFFFFFFFFF AND PUSH2 0x8FC CALLVALUE SWAP1 DUP2 ISZERO MUL SWAP1 PUSH1 0x40 MLOAD PUSH1 0x0 PUSH1 0x40 MLOAD DUP1 DUP4 SUB DUP2 DUP6 DUP9 DUP9 CALL SWAP4 POP POP POP POP ISZERO DUP1 ISZERO PUSH2 0x3A2 JUMPI RETURNDATASIZE PUSH1 0x0 DUP1 RETURNDATACOPY RETURNDATASIZE PUSH1 0x0 REVERT JUMPDEST POP PUSH2 0x3F0 JUMP JUMPDEST CALLER PUSH20 0xFFFFFFFFFFFFFFFFFFFFFFFFFFFFFFFFFFFFFFFF AND PUSH2 0x8FC CALLVALUE SWAP1 DUP2 ISZERO MUL SWAP1 PUSH1 0x40 MLOAD PUSH1 0x0 PUSH1 0x40 MLOAD DUP1 DUP4 SUB DUP2 DUP6 DUP9 DUP9 CALL SWAP4 POP POP POP POP ISZERO DUP1 ISZERO PUSH2 0x3EE JUMPI RETURNDATASIZE PUSH1 0x0 DUP1 RETURNDATACOPY RETURNDATASIZE PUSH1 0x0 REVERT JUMPDEST POP JUMPDEST JUMP JUMPDEST PUSH1 0x0 DUP2 SWAP1 POP SWAP2 SWAP1 POP JUMP JUMPDEST PUSH2 0x405 DUP2 PUSH2 0x3F2 JUMP JUMPDEST DUP3 MSTORE POP POP JUMP JUMPDEST PUSH1 0x0 PUSH1 0x20 DUP3 ADD SWAP1 POP PUSH2 0x420 PUSH1 0x0 DUP4 ADD DUP5 PUSH2 0x3FC JUMP JUMPDEST SWAP3 SWAP2 POP POP JUMP JUMPDEST PUSH1 0x0 PUSH20 0xFFFFFFFFFFFFFFFFFFFFFFFFFFFFFFFFFFFFFFFF DUP3 AND SWAP1 POP SWAP2 SWAP1 POP JUMP JUMPDEST PUSH1 0x0 PUSH2 0x451 DUP3 PUSH2 0x426 JUMP JUMPDEST SWAP1 POP SWAP2 SWAP1 POP JUMP JUMPDEST PUSH2 0x461 DUP2 PUSH2 0x446 JUMP JUMPDEST DUP3 MSTORE POP POP JUMP JUMPDEST PUSH1 0x0 PUSH1 0x20 DUP3 ADD SWAP1 POP PUSH2 0x47C PUSH1 0x0 DUP4 ADD DUP5 PUSH2 0x458 JUMP JUMPDEST SWAP3 SWAP2 POP POP JUMP JUMPDEST PUSH1 0x0 DUP2 ISZERO ISZERO SWAP1 POP SWAP2 SWAP1 POP JUMP JUMPDEST PUSH2 0x497 DUP2 PUSH2 0x482 JUMP JUMPDEST DUP3 MSTORE POP POP JUMP JUMPDEST PUSH1 0x0 PUSH1 0x20 DUP3 ADD SWAP1 POP PUSH2 0x4B2 PUSH1 0x0 DUP4 ADD DUP5 PUSH2 0x48E JUMP JUMPDEST SWAP3 SWAP2 POP POP JUMP JUMPDEST PUSH1 0x0 DUP3 DUP3 MSTORE PUSH1 0x20 DUP3 ADD SWAP1 POP SWAP3 SWAP2 POP POP JUMP JUMPDEST PUSH32 0x41756374696F6E20457870697265640000000000000000000000000000000000 PUSH1 0x0 DUP3 ADD MSTORE POP JUMP JUMPDEST PUSH1 0x0 PUSH2 0x4FF PUSH1 0xF DUP4 PUSH2 0x4B8 JUMP JUMPDEST SWAP2 POP PUSH2 0x50A DUP3 PUSH2 0x4C9 JUMP JUMPDEST PUSH1 0x20 DUP3 ADD SWAP1 POP SWAP2 SWAP1 POP JUMP JUMPDEST PUSH1 0x0 PUSH1 0x20 DUP3 ADD SWAP1 POP DUP2 DUP2 SUB PUSH1 0x0 DUP4 ADD MSTORE PUSH2 0x52E DUP2 PUSH2 0x4F2 JUMP JUMPDEST SWAP1 POP SWAP2 SWAP1 POP JUMP JUMPDEST PUSH32 0x41756374696F6E2068617320656E646564000000000000000000000000000000 PUSH1 0x0 DUP3 ADD MSTORE POP JUMP JUMPDEST PUSH1 0x0 PUSH2 0x56B PUSH1 0x11 DUP4 PUSH2 0x4B8 JUMP JUMPDEST SWAP2 POP PUSH2 0x576 DUP3 PUSH2 0x535 JUMP JUMPDEST PUSH1 0x20 DUP3 ADD SWAP1 POP SWAP2 SWAP1 POP JUMP JUMPDEST PUSH1 0x0 PUSH1 0x20 DUP3 ADD SWAP1 POP DUP2 DUP2 SUB PUSH1 0x0 DUP4 ADD MSTORE PUSH2 0x59A DUP2 PUSH2 0x55E JUMP JUMPDEST SWAP1 POP SWAP2 SWAP1 POP JUMP JUMPDEST PUSH32 0x4E487B7100000000000000000000000000000000000000000000000000000000 PUSH1 0x0 MSTORE PUSH1 0x11 PUSH1 0x4 MSTORE PUSH1 0x24 PUSH1 0x0 REVERT JUMPDEST PUSH1 0x0 PUSH2 0x5DB DUP3 PUSH2 0x3F2 JUMP JUMPDEST SWAP2 POP PUSH2 0x5E6 DUP4 PUSH2 0x3F2 JUMP JUMPDEST SWAP3 POP DUP3 DUP3 ADD SWAP1 POP DUP1 DUP3 GT ISZERO PUSH2 0x5FE JUMPI PUSH2 0x5FD PUSH2 0x5A1 JUMP JUMPDEST JUMPDEST SWAP3 SWAP2 POP POP JUMP JUMPDEST PUSH1 0x0 PUSH2 0x60F DUP3 PUSH2 0x3F2 JUMP JUMPDEST SWAP2 POP PUSH2 0x61A DUP4 PUSH2 0x3F2 JUMP JUMPDEST SWAP3 POP DUP3 DUP3 SUB SWAP1 POP DUP2 DUP2 GT ISZERO PUSH2 0x632 JUMPI PUSH2 0x631 PUSH2 0x5A1 JUMP JUMPDEST JUMPDEST SWAP3 SWAP2 POP POP JUMP JUMPDEST PUSH1 0x0 PUSH2 0x643 DUP3 PUSH2 0x3F2 JUMP JUMPDEST SWAP2 POP PUSH2 0x64E DUP4 PUSH2 0x3F2 JUMP JUMPDEST SWAP3 POP DUP3 DUP3 MUL PUSH2 0x65C DUP2 PUSH2 0x3F2 JUMP JUMPDEST SWAP2 POP DUP3 DUP3 DIV DUP5 EQ DUP4 ISZERO OR PUSH2 0x673 JUMPI PUSH2 0x672 PUSH2 0x5A1 JUMP JUMPDEST JUMPDEST POP SWAP3 SWAP2 POP POP JUMP INVALID LOG2 PUSH5 0x6970667358 0x22 SLT KECCAK256 STOP 0xA6 CALLCODE POP DUP13 0xCF 0xC0 DUP9 GAS DUP16 PREVRANDAO 0xE6 PUSH28 0x42C678644A8DF5B41B00B917FCDFC53CC50CC064736F6C6343000812 STOP CALLER "},"methodIdentifiers":{"auctionEnded()":"86433374","currentPrice()":"9d1b464a","endBlock()":"083c6323","numBlocksAuctionOpen()":"3103ea62","offerPriceDecrement()":"d3642a88","placeBid()":"ecfc7ecc","reservePrice()":"db2e1eed","seller()":"08551a53","startBlock()":"48cd4cb1"}}}}}