{"contracts/dutchauction.sol":{"DutchAuction":{"abi":[{"inputs":[{"internalType":"uint256","name":"_reservePrice","type":"uint256"},{"internalType":"uint256","name":"_numBlocksAuctionOpen","type":"uint256"},{"internalType":"uint256","name":"_offerPriceDecrement","type":"uint256"}],"stateMutability":"nonpayable","type":"constructor"},{"inputs":[],"name":"auctionEnded","outputs":[{"internalType":"bool","name":"","type":"bool"}],"stateMutability":"view","type":"function"},{"inputs":[],"name":"currentPrice","outputs":[{"internalType":"uint256","name":"","type":"uint256"}],"stateMutability":"view","type":"function"},{"inputs":[],"name":"endBlock","outputs":[{"internalType":"uint256","name":"","type":"uint256"}],"stateMutability":"view","type":"function"},{"inputs":[],"name":"numBlocksAuctionOpen","outputs":[{"internalType":"uint256","name":"","type":"uint256"}],"stateMutability":"view","type":"function"},{"inputs":[],"name":"offerPriceDecrement","outputs":[{"internalType":"uint256","name":"","type":"uint256"}],"stateMutability":"view","type":"function"},{"inputs":[],"name":"placeBid","outputs":[],"stateMutability":"payable","type":"function"},{"inputs":[],"name":"reservePrice","outputs":[{"internalType":"uint256","name":"","type":"uint256"}],"stateMutability":"view","type":"function"},{"inputs":[],"name":"seller","outputs":[{"internalType":"address payable","name":"","type":"address"}],"stateMutability":"view","type":"function"},{"inputs":[],"name":"startBlock","outputs":[{"internalType":"uint256","name":"","type":"uint256"}],"stateMutability":"view","type":"function"}],"evm":{"bytecode":{"linkReferences":{},"object":"60806040523480156200001157600080fd5b50604051620009e9380380620009e98339818101604052810190620000379190620001f2565b62000053671121ade41a43808a60c01b620001af60201b60201c565b6200006f6754a051dd459d196e60c01b620001af60201b60201c565b336000806101000a81548173ffffffffffffffffffffffffffffffffffffffff021916908373ffffffffffffffffffffffffffffffffffffffff160217905550620000cb677f6b5a33147f882c60c01b620001af60201b60201c565b82600181905550620000ee673bd573c37d4f45e760c01b620001af60201b60201c565b816002819055506200011167ae3414c3899122b260c01b620001af60201b60201c565b80600381905550620001346716375c0c312feffd60c01b620001af60201b60201c565b43600481905550620001576795ddc0a168ccac7f60c01b620001af60201b60201c565b6002546004546200016991906200027d565b6005819055506200018b674ee7178c85079f4360c01b620001af60201b60201c565b6000600760006101000a81548160ff021916908315150217905550505050620002b8565b50565b600080fd5b6000819050919050565b620001cc81620001b7565b8114620001d857600080fd5b50565b600081519050620001ec81620001c1565b92915050565b6000806000606084860312156200020e576200020d620001b2565b5b60006200021e86828701620001db565b93505060206200023186828701620001db565b92505060406200024486828701620001db565b9150509250925092565b7f4e487b7100000000000000000000000000000000000000000000000000000000600052601160045260246000fd5b60006200028a82620001b7565b91506200029783620001b7565b9250828201905080821115620002b257620002b16200024e565b5b92915050565b61072180620002c86000396000f3fe6080604052600436106100865760003560e01c8063864333741161005957806386433374146101375780639d1b464a14610162578063d3642a881461018d578063db2e1eed146101b8578063ecfc7ecc146101e357610086565b8063083c63231461008b57806308551a53146100b65780633103ea62146100e157806348cd4cb11461010c575b600080fd5b34801561009757600080fd5b506100a06101ed565b6040516100ad91906104e8565b60405180910390f35b3480156100c257600080fd5b506100cb6101f3565b6040516100d89190610544565b60405180910390f35b3480156100ed57600080fd5b506100f6610217565b60405161010391906104e8565b60405180910390f35b34801561011857600080fd5b5061012161021d565b60405161012e91906104e8565b60405180910390f35b34801561014357600080fd5b5061014c610223565b604051610159919061057a565b60405180910390f35b34801561016e57600080fd5b50610177610236565b60405161018491906104e8565b60405180910390f35b34801561019957600080fd5b506101a261023c565b6040516101af91906104e8565b60405180910390f35b3480156101c457600080fd5b506101cd610242565b6040516101da91906104e8565b60405180910390f35b6101eb610248565b005b60055481565b60008054906101000a900473ffffffffffffffffffffffffffffffffffffffff1681565b60025481565b60045481565b600760009054906101000a900460ff1681565b60065481565b60035481565b60015481565b61025c67e3dd336ace77595c60c01b6104cc565b610270677ba65d7611b0198260c01b6104cc565b610284671d1387ba874b716060c01b6104cc565b610298674f3115955bf118cc60c01b6104cc565b600760009054906101000a900460ff16156102e8576040517f08c379a00000000000000000000000000000000000000000000000000000000081526004016102df906105f2565b60405180910390fd5b6102fc675ac5818c4a7d2c7760c01b6104cc565b6103106728a98edf5897c40e60c01b6104cc565b600354436005546103219190610641565b61032b9190610675565b60015461033891906106b7565b600681905550610352670303bbbc1801500860c01b6104cc565b6103666708d29e9e7dd4f33e60c01b6104cc565b60065434106104465761038367e035d1e089f7f83960c01b6104cc565b6103976782a218150fe7c7d460c01b6104cc565b6001600760006101000a81548160ff0219169083151502179055506103c667541020b2e368b6a460c01b6104cc565b6103da6776878bdfe8a0bde860c01b6104cc565b60008054906101000a900473ffffffffffffffffffffffffffffffffffffffff1673ffffffffffffffffffffffffffffffffffffffff166108fc349081150290604051600060405180830381858888f19350505050158015610440573d6000803e3d6000fd5b506104ca565b61045a67c2f49f1bd5efec1e60c01b6104cc565b61046e67dbe6100fef3d5df460c01b6104cc565b61048267fcff5eb1d6a63a9460c01b6104cc565b3373ffffffffffffffffffffffffffffffffffffffff166108fc349081150290604051600060405180830381858888f193505050501580156104c8573d6000803e3d6000fd5b505b565b50565b6000819050919050565b6104e2816104cf565b82525050565b60006020820190506104fd60008301846104d9565b92915050565b600073ffffffffffffffffffffffffffffffffffffffff82169050919050565b600061052e82610503565b9050919050565b61053e81610523565b82525050565b60006020820190506105596000830184610535565b92915050565b60008115159050919050565b6105748161055f565b82525050565b600060208201905061058f600083018461056b565b92915050565b600082825260208201905092915050565b7f41756374696f6e2068617320656e646564000000000000000000000000000000600082015250565b60006105dc601183610595565b91506105e7826105a6565b602082019050919050565b6000602082019050818103600083015261060b816105cf565b9050919050565b7f4e487b7100000000000000000000000000000000000000000000000000000000600052601160045260246000fd5b600061064c826104cf565b9150610657836104cf565b925082820390508181111561066f5761066e610612565b5b92915050565b6000610680826104cf565b915061068b836104cf565b9250828202610699816104cf565b915082820484148315176106b0576106af610612565b5b5092915050565b60006106c2826104cf565b91506106cd836104cf565b92508282019050808211156106e5576106e4610612565b5b9291505056fea2646970667358221220e8f423239cf4e47001804ae37c7527d0c73180b06cd3cee26bfd93c27674090764736f6c63430008120033","opcodes":"PUSH1 0x80 PUSH1 0x40 MSTORE CALLVALUE DUP1 ISZERO PUSH3 0x11 JUMPI PUSH1 0x0 DUP1 REVERT JUMPDEST POP PUSH1 0x40 MLOAD PUSH3 0x9E9 CODESIZE SUB DUP1 PUSH3 0x9E9 DUP4 CODECOPY DUP2 DUP2 ADD PUSH1 0x40 MSTORE DUP2 ADD SWAP1 PUSH3 0x37 SWAP2 SWAP1 PUSH3 0x1F2 JUMP JUMPDEST PUSH3 0x53 PUSH8 0x1121ADE41A43808A PUSH1 0xC0 SHL PUSH3 0x1AF PUSH1 0x20 SHL PUSH1 0x20 SHR JUMP JUMPDEST PUSH3 0x6F PUSH8 0x54A051DD459D196E PUSH1 0xC0 SHL PUSH3 0x1AF PUSH1 0x20 SHL PUSH1 0x20 SHR JUMP JUMPDEST CALLER PUSH1 0x0 DUP1 PUSH2 0x100 EXP DUP2 SLOAD DUP2 PUSH20 0xFFFFFFFFFFFFFFFFFFFFFFFFFFFFFFFFFFFFFFFF MUL NOT AND SWAP1 DUP4 PUSH20 0xFFFFFFFFFFFFFFFFFFFFFFFFFFFFFFFFFFFFFFFF AND MUL OR SWAP1 SSTORE POP PUSH3 0xCB PUSH8 0x7F6B5A33147F882C PUSH1 0xC0 SHL PUSH3 0x1AF PUSH1 0x20 SHL PUSH1 0x20 SHR JUMP JUMPDEST DUP3 PUSH1 0x1 DUP2 SWAP1 SSTORE POP PUSH3 0xEE PUSH8 0x3BD573C37D4F45E7 PUSH1 0xC0 SHL PUSH3 0x1AF PUSH1 0x20 SHL PUSH1 0x20 SHR JUMP JUMPDEST DUP2 PUSH1 0x2 DUP2 SWAP1 SSTORE POP PUSH3 0x111 PUSH8 0xAE3414C3899122B2 PUSH1 0xC0 SHL PUSH3 0x1AF PUSH1 0x20 SHL PUSH1 0x20 SHR JUMP JUMPDEST DUP1 PUSH1 0x3 DUP2 SWAP1 SSTORE POP PUSH3 0x134 PUSH8 0x16375C0C312FEFFD PUSH1 0xC0 SHL PUSH3 0x1AF PUSH1 0x20 SHL PUSH1 0x20 SHR JUMP JUMPDEST NUMBER PUSH1 0x4 DUP2 SWAP1 SSTORE POP PUSH3 0x157 PUSH8 0x95DDC0A168CCAC7F PUSH1 0xC0 SHL PUSH3 0x1AF PUSH1 0x20 SHL PUSH1 0x20 SHR JUMP JUMPDEST PUSH1 0x2 SLOAD PUSH1 0x4 SLOAD PUSH3 0x169 SWAP2 SWAP1 PUSH3 0x27D JUMP JUMPDEST PUSH1 0x5 DUP2 SWAP1 SSTORE POP PUSH3 0x18B PUSH8 0x4EE7178C85079F43 PUSH1 0xC0 SHL PUSH3 0x1AF PUSH1 0x20 SHL PUSH1 0x20 SHR JUMP JUMPDEST PUSH1 0x0 PUSH1 0x7 PUSH1 0x0 PUSH2 0x100 EXP DUP2 SLOAD DUP2 PUSH1 0xFF MUL NOT AND SWAP1 DUP4 ISZERO ISZERO MUL OR SWAP1 SSTORE POP POP POP POP PUSH3 0x2B8 JUMP JUMPDEST POP JUMP JUMPDEST PUSH1 0x0 DUP1 REVERT JUMPDEST PUSH1 0x0 DUP2 SWAP1 POP SWAP2 SWAP1 POP JUMP JUMPDEST PUSH3 0x1CC DUP2 PUSH3 0x1B7 JUMP JUMPDEST DUP2 EQ PUSH3 0x1D8 JUMPI PUSH1 0x0 DUP1 REVERT JUMPDEST POP JUMP JUMPDEST PUSH1 0x0 DUP2 MLOAD SWAP1 POP PUSH3 0x1EC DUP2 PUSH3 0x1C1 JUMP JUMPDEST SWAP3 SWAP2 POP POP JUMP JUMPDEST PUSH1 0x0 DUP1 PUSH1 0x0 PUSH1 0x60 DUP5 DUP7 SUB SLT ISZERO PUSH3 0x20E JUMPI PUSH3 0x20D PUSH3 0x1B2 JUMP JUMPDEST JUMPDEST PUSH1 0x0 PUSH3 0x21E DUP7 DUP3 DUP8 ADD PUSH3 0x1DB JUMP JUMPDEST SWAP4 POP POP PUSH1 0x20 PUSH3 0x231 DUP7 DUP3 DUP8 ADD PUSH3 0x1DB JUMP JUMPDEST SWAP3 POP POP PUSH1 0x40 PUSH3 0x244 DUP7 DUP3 DUP8 ADD PUSH3 0x1DB JUMP JUMPDEST SWAP2 POP POP SWAP3 POP SWAP3 POP SWAP3 JUMP JUMPDEST PUSH32 0x4E487B7100000000000000000000000000000000000000000000000000000000 PUSH1 0x0 MSTORE PUSH1 0x11 PUSH1 0x4 MSTORE PUSH1 0x24 PUSH1 0x0 REVERT JUMPDEST PUSH1 0x0 PUSH3 0x28A DUP3 PUSH3 0x1B7 JUMP JUMPDEST SWAP2 POP PUSH3 0x297 DUP4 PUSH3 0x1B7 JUMP JUMPDEST SWAP3 POP DUP3 DUP3 ADD SWAP1 POP DUP1 DUP3 GT ISZERO PUSH3 0x2B2 JUMPI PUSH3 0x2B1 PUSH3 0x24E JUMP JUMPDEST JUMPDEST SWAP3 SWAP2 POP POP JUMP JUMPDEST PUSH2 0x721 DUP1 PUSH3 0x2C8 PUSH1 0x0 CODECOPY PUSH1 0x0 RETURN INVALID PUSH1 0x80 PUSH1 0x40 MSTORE PUSH1 0x4 CALLDATASIZE LT PUSH2 0x86 JUMPI PUSH1 0x0 CALLDATALOAD PUSH1 0xE0 SHR DUP1 PUSH4 0x86433374 GT PUSH2 0x59 JUMPI DUP1 PUSH4 0x86433374 EQ PUSH2 0x137 JUMPI DUP1 PUSH4 0x9D1B464A EQ PUSH2 0x162 JUMPI DUP1 PUSH4 0xD3642A88 EQ PUSH2 0x18D JUMPI DUP1 PUSH4 0xDB2E1EED EQ PUSH2 0x1B8 JUMPI DUP1 PUSH4 0xECFC7ECC EQ PUSH2 0x1E3 JUMPI PUSH2 0x86 JUMP JUMPDEST DUP1 PUSH4 0x83C6323 EQ PUSH2 0x8B JUMPI DUP1 PUSH4 0x8551A53 EQ PUSH2 0xB6 JUMPI DUP1 PUSH4 0x3103EA62 EQ PUSH2 0xE1 JUMPI DUP1 PUSH4 0x48CD4CB1 EQ PUSH2 0x10C JUMPI JUMPDEST PUSH1 0x0 DUP1 REVERT JUMPDEST CALLVALUE DUP1 ISZERO PUSH2 0x97 JUMPI PUSH1 0x0 DUP1 REVERT JUMPDEST POP PUSH2 0xA0 PUSH2 0x1ED JUMP JUMPDEST PUSH1 0x40 MLOAD PUSH2 0xAD SWAP2 SWAP1 PUSH2 0x4E8 JUMP JUMPDEST PUSH1 0x40 MLOAD DUP1 SWAP2 SUB SWAP1 RETURN JUMPDEST CALLVALUE DUP1 ISZERO PUSH2 0xC2 JUMPI PUSH1 0x0 DUP1 REVERT JUMPDEST POP PUSH2 0xCB PUSH2 0x1F3 JUMP JUMPDEST PUSH1 0x40 MLOAD PUSH2 0xD8 SWAP2 SWAP1 PUSH2 0x544 JUMP JUMPDEST PUSH1 0x40 MLOAD DUP1 SWAP2 SUB SWAP1 RETURN JUMPDEST CALLVALUE DUP1 ISZERO PUSH2 0xED JUMPI PUSH1 0x0 DUP1 REVERT JUMPDEST POP PUSH2 0xF6 PUSH2 0x217 JUMP JUMPDEST PUSH1 0x40 MLOAD PUSH2 0x103 SWAP2 SWAP1 PUSH2 0x4E8 JUMP JUMPDEST PUSH1 0x40 MLOAD DUP1 SWAP2 SUB SWAP1 RETURN JUMPDEST CALLVALUE DUP1 ISZERO PUSH2 0x118 JUMPI PUSH1 0x0 DUP1 REVERT JUMPDEST POP PUSH2 0x121 PUSH2 0x21D JUMP JUMPDEST PUSH1 0x40 MLOAD PUSH2 0x12E SWAP2 SWAP1 PUSH2 0x4E8 JUMP JUMPDEST PUSH1 0x40 MLOAD DUP1 SWAP2 SUB SWAP1 RETURN JUMPDEST CALLVALUE DUP1 ISZERO PUSH2 0x143 JUMPI PUSH1 0x0 DUP1 REVERT JUMPDEST POP PUSH2 0x14C PUSH2 0x223 JUMP JUMPDEST PUSH1 0x40 MLOAD PUSH2 0x159 SWAP2 SWAP1 PUSH2 0x57A JUMP JUMPDEST PUSH1 0x40 MLOAD DUP1 SWAP2 SUB SWAP1 RETURN JUMPDEST CALLVALUE DUP1 ISZERO PUSH2 0x16E JUMPI PUSH1 0x0 DUP1 REVERT JUMPDEST POP PUSH2 0x177 PUSH2 0x236 JUMP JUMPDEST PUSH1 0x40 MLOAD PUSH2 0x184 SWAP2 SWAP1 PUSH2 0x4E8 JUMP JUMPDEST PUSH1 0x40 MLOAD DUP1 SWAP2 SUB SWAP1 RETURN JUMPDEST CALLVALUE DUP1 ISZERO PUSH2 0x199 JUMPI PUSH1 0x0 DUP1 REVERT JUMPDEST POP PUSH2 0x1A2 PUSH2 0x23C JUMP JUMPDEST PUSH1 0x40 MLOAD PUSH2 0x1AF SWAP2 SWAP1 PUSH2 0x4E8 JUMP JUMPDEST PUSH1 0x40 MLOAD DUP1 SWAP2 SUB SWAP1 RETURN JUMPDEST CALLVALUE DUP1 ISZERO PUSH2 0x1C4 JUMPI PUSH1 0x0 DUP1 REVERT JUMPDEST POP PUSH2 0x1CD PUSH2 0x242 JUMP JUMPDEST PUSH1 0x40 MLOAD PUSH2 0x1DA SWAP2 SWAP1 PUSH2 0x4E8 JUMP JUMPDEST PUSH1 0x40 MLOAD DUP1 SWAP2 SUB SWAP1 RETURN JUMPDEST PUSH2 0x1EB PUSH2 0x248 JUMP JUMPDEST STOP JUMPDEST PUSH1 0x5 SLOAD DUP2 JUMP JUMPDEST PUSH1 0x0 DUP1 SLOAD SWAP1 PUSH2 0x100 EXP SWAP1 DIV PUSH20 0xFFFFFFFFFFFFFFFFFFFFFFFFFFFFFFFFFFFFFFFF AND DUP2 JUMP JUMPDEST PUSH1 0x2 SLOAD DUP2 JUMP JUMPDEST PUSH1 0x4 SLOAD DUP2 JUMP JUMPDEST PUSH1 0x7 PUSH1 0x0 SWAP1 SLOAD SWAP1 PUSH2 0x100 EXP SWAP1 DIV PUSH1 0xFF AND DUP2 JUMP JUMPDEST PUSH1 0x6 SLOAD DUP2 JUMP JUMPDEST PUSH1 0x3 SLOAD DUP2 JUMP JUMPDEST PUSH1 0x1 SLOAD DUP2 JUMP JUMPDEST PUSH2 0x25C PUSH8 0xE3DD336ACE77595C PUSH1 0xC0 SHL PUSH2 0x4CC JUMP JUMPDEST PUSH2 0x270 PUSH8 0x7BA65D7611B01982 PUSH1 0xC0 SHL PUSH2 0x4CC JUMP JUMPDEST PUSH2 0x284 PUSH8 0x1D1387BA874B7160 PUSH1 0xC0 SHL PUSH2 0x4CC JUMP JUMPDEST PUSH2 0x298 PUSH8 0x4F3115955BF118CC PUSH1 0xC0 SHL PUSH2 0x4CC JUMP JUMPDEST PUSH1 0x7 PUSH1 0x0 SWAP1 SLOAD SWAP1 PUSH2 0x100 EXP SWAP1 DIV PUSH1 0xFF AND ISZERO PUSH2 0x2E8 JUMPI PUSH1 0x40 MLOAD PUSH32 0x8C379A000000000000000000000000000000000000000000000000000000000 DUP2 MSTORE PUSH1 0x4 ADD PUSH2 0x2DF SWAP1 PUSH2 0x5F2 JUMP JUMPDEST PUSH1 0x40 MLOAD DUP1 SWAP2 SUB SWAP1 REVERT JUMPDEST PUSH2 0x2FC PUSH8 0x5AC5818C4A7D2C77 PUSH1 0xC0 SHL PUSH2 0x4CC JUMP JUMPDEST PUSH2 0x310 PUSH8 0x28A98EDF5897C40E PUSH1 0xC0 SHL PUSH2 0x4CC JUMP JUMPDEST PUSH1 0x3 SLOAD NUMBER PUSH1 0x5 SLOAD PUSH2 0x321 SWAP2 SWAP1 PUSH2 0x641 JUMP JUMPDEST PUSH2 0x32B SWAP2 SWAP1 PUSH2 0x675 JUMP JUMPDEST PUSH1 0x1 SLOAD PUSH2 0x338 SWAP2 SWAP1 PUSH2 0x6B7 JUMP JUMPDEST PUSH1 0x6 DUP2 SWAP1 SSTORE POP PUSH2 0x352 PUSH8 0x303BBBC18015008 PUSH1 0xC0 SHL PUSH2 0x4CC JUMP JUMPDEST PUSH2 0x366 PUSH8 0x8D29E9E7DD4F33E PUSH1 0xC0 SHL PUSH2 0x4CC JUMP JUMPDEST PUSH1 0x6 SLOAD CALLVALUE LT PUSH2 0x446 JUMPI PUSH2 0x383 PUSH8 0xE035D1E089F7F839 PUSH1 0xC0 SHL PUSH2 0x4CC JUMP JUMPDEST PUSH2 0x397 PUSH8 0x82A218150FE7C7D4 PUSH1 0xC0 SHL PUSH2 0x4CC JUMP JUMPDEST PUSH1 0x1 PUSH1 0x7 PUSH1 0x0 PUSH2 0x100 EXP DUP2 SLOAD DUP2 PUSH1 0xFF MUL NOT AND SWAP1 DUP4 ISZERO ISZERO MUL OR SWAP1 SSTORE POP PUSH2 0x3C6 PUSH8 0x541020B2E368B6A4 PUSH1 0xC0 SHL PUSH2 0x4CC JUMP JUMPDEST PUSH2 0x3DA PUSH8 0x76878BDFE8A0BDE8 PUSH1 0xC0 SHL PUSH2 0x4CC JUMP JUMPDEST PUSH1 0x0 DUP1 SLOAD SWAP1 PUSH2 0x100 EXP SWAP1 DIV PUSH20 0xFFFFFFFFFFFFFFFFFFFFFFFFFFFFFFFFFFFFFFFF AND PUSH20 0xFFFFFFFFFFFFFFFFFFFFFFFFFFFFFFFFFFFFFFFF AND PUSH2 0x8FC CALLVALUE SWAP1 DUP2 ISZERO MUL SWAP1 PUSH1 0x40 MLOAD PUSH1 0x0 PUSH1 0x40 MLOAD DUP1 DUP4 SUB DUP2 DUP6 DUP9 DUP9 CALL SWAP4 POP POP POP POP ISZERO DUP1 ISZERO PUSH2 0x440 JUMPI RETURNDATASIZE PUSH1 0x0 DUP1 RETURNDATACOPY RETURNDATASIZE PUSH1 0x0 REVERT JUMPDEST POP PUSH2 0x4CA JUMP JUMPDEST PUSH2 0x45A PUSH8 0xC2F49F1BD5EFEC1E PUSH1 0xC0 SHL PUSH2 0x4CC JUMP JUMPDEST PUSH2 0x46E PUSH8 0xDBE6100FEF3D5DF4 PUSH1 0xC0 SHL PUSH2 0x4CC JUMP JUMPDEST PUSH2 0x482 PUSH8 0xFCFF5EB1D6A63A94 PUSH1 0xC0 SHL PUSH2 0x4CC JUMP JUMPDEST CALLER PUSH20 0xFFFFFFFFFFFFFFFFFFFFFFFFFFFFFFFFFFFFFFFF AND PUSH2 0x8FC CALLVALUE SWAP1 DUP2 ISZERO MUL SWAP1 PUSH1 0x40 MLOAD PUSH1 0x0 PUSH1 0x40 MLOAD DUP1 DUP4 SUB DUP2 DUP6 DUP9 DUP9 CALL SWAP4 POP POP POP POP ISZERO DUP1 ISZERO PUSH2 0x4C8 JUMPI RETURNDATASIZE PUSH1 0x0 DUP1 RETURNDATACOPY RETURNDATASIZE PUSH1 0x0 REVERT JUMPDEST POP JUMPDEST JUMP JUMPDEST POP JUMP JUMPDEST PUSH1 0x0 DUP2 SWAP1 POP SWAP2 SWAP1 POP JUMP JUMPDEST PUSH2 0x4E2 DUP2 PUSH2 0x4CF JUMP JUMPDEST DUP3 MSTORE POP POP JUMP JUMPDEST PUSH1 0x0 PUSH1 0x20 DUP3 ADD SWAP1 POP PUSH2 0x4FD PUSH1 0x0 DUP4 ADD DUP5 PUSH2 0x4D9 JUMP JUMPDEST SWAP3 SWAP2 POP POP JUMP JUMPDEST PUSH1 0x0 PUSH20 0xFFFFFFFFFFFFFFFFFFFFFFFFFFFFFFFFFFFFFFFF DUP3 AND SWAP1 POP SWAP2 SWAP1 POP JUMP JUMPDEST PUSH1 0x0 PUSH2 0x52E DUP3 PUSH2 0x503 JUMP JUMPDEST SWAP1 POP SWAP2 SWAP1 POP JUMP JUMPDEST PUSH2 0x53E DUP2 PUSH2 0x523 JUMP JUMPDEST DUP3 MSTORE POP POP JUMP JUMPDEST PUSH1 0x0 PUSH1 0x20 DUP3 ADD SWAP1 POP PUSH2 0x559 PUSH1 0x0 DUP4 ADD DUP5 PUSH2 0x535 JUMP JUMPDEST SWAP3 SWAP2 POP POP JUMP JUMPDEST PUSH1 0x0 DUP2 ISZERO ISZERO SWAP1 POP SWAP2 SWAP1 POP JUMP JUMPDEST PUSH2 0x574 DUP2 PUSH2 0x55F JUMP JUMPDEST DUP3 MSTORE POP POP JUMP JUMPDEST PUSH1 0x0 PUSH1 0x20 DUP3 ADD SWAP1 POP PUSH2 0x58F PUSH1 0x0 DUP4 ADD DUP5 PUSH2 0x56B JUMP JUMPDEST SWAP3 SWAP2 POP POP JUMP JUMPDEST PUSH1 0x0 DUP3 DUP3 MSTORE PUSH1 0x20 DUP3 ADD SWAP1 POP SWAP3 SWAP2 POP POP JUMP JUMPDEST PUSH32 0x41756374696F6E2068617320656E646564000000000000000000000000000000 PUSH1 0x0 DUP3 ADD MSTORE POP JUMP JUMPDEST PUSH1 0x0 PUSH2 0x5DC PUSH1 0x11 DUP4 PUSH2 0x595 JUMP JUMPDEST SWAP2 POP PUSH2 0x5E7 DUP3 PUSH2 0x5A6 JUMP JUMPDEST PUSH1 0x20 DUP3 ADD SWAP1 POP SWAP2 SWAP1 POP JUMP JUMPDEST PUSH1 0x0 PUSH1 0x20 DUP3 ADD SWAP1 POP DUP2 DUP2 SUB PUSH1 0x0 DUP4 ADD MSTORE PUSH2 0x60B DUP2 PUSH2 0x5CF JUMP JUMPDEST SWAP1 POP SWAP2 SWAP1 POP JUMP JUMPDEST PUSH32 0x4E487B7100000000000000000000000000000000000000000000000000000000 PUSH1 0x0 MSTORE PUSH1 0x11 PUSH1 0x4 MSTORE PUSH1 0x24 PUSH1 0x0 REVERT JUMPDEST PUSH1 0x0 PUSH2 0x64C DUP3 PUSH2 0x4CF JUMP JUMPDEST SWAP2 POP PUSH2 0x657 DUP4 PUSH2 0x4CF JUMP JUMPDEST SWAP3 POP DUP3 DUP3 SUB SWAP1 POP DUP2 DUP2 GT ISZERO PUSH2 0x66F JUMPI PUSH2 0x66E PUSH2 0x612 JUMP JUMPDEST JUMPDEST SWAP3 SWAP2 POP POP JUMP JUMPDEST PUSH1 0x0 PUSH2 0x680 DUP3 PUSH2 0x4CF JUMP JUMPDEST SWAP2 POP PUSH2 0x68B DUP4 PUSH2 0x4CF JUMP JUMPDEST SWAP3 POP DUP3 DUP3 MUL PUSH2 0x699 DUP2 PUSH2 0x4CF JUMP JUMPDEST SWAP2 POP DUP3 DUP3 DIV DUP5 EQ DUP4 ISZERO OR PUSH2 0x6B0 JUMPI PUSH2 0x6AF PUSH2 0x612 JUMP JUMPDEST JUMPDEST POP SWAP3 SWAP2 POP POP JUMP JUMPDEST PUSH1 0x0 PUSH2 0x6C2 DUP3 PUSH2 0x4CF JUMP JUMPDEST SWAP2 POP PUSH2 0x6CD DUP4 PUSH2 0x4CF JUMP JUMPDEST SWAP3 POP DUP3 DUP3 ADD SWAP1 POP DUP1 DUP3 GT ISZERO PUSH2 0x6E5 JUMPI PUSH2 0x6E4 PUSH2 0x612 JUMP JUMPDEST JUMPDEST SWAP3 SWAP2 POP POP JUMP INVALID LOG2 PUSH5 0x6970667358 0x22 SLT KECCAK256 0xE8 DELEGATECALL 0x23 0x23 SWAP13 DELEGATECALL 0xE4 PUSH17 0x1804AE37C7527D0C73180B06CD3CEE26B REVERT SWAP4 0xC2 PUSH23 0x74090764736F6C63430008120033000000000000000000 "},"methodIdentifiers":{"auctionEnded()":"86433374","currentPrice()":"9d1b464a","endBlock()":"083c6323","numBlocksAuctionOpen()":"3103ea62","offerPriceDecrement()":"d3642a88","placeBid()":"ecfc7ecc","reservePrice()":"db2e1eed","seller()":"08551a53","startBlock()":"48cd4cb1"}}}}}