{
  "_format": "hh-sol-artifact-1",
  "contractName": "DutchAuction",
  "sourceName": "contracts/dutchauction.sol",
  "abi": [
    {
      "inputs": [
        {
          "internalType": "uint256",
          "name": "_reservePrice",
          "type": "uint256"
        },
        {
          "internalType": "uint256",
          "name": "_numBlocksAuctionOpen",
          "type": "uint256"
        },
        {
          "internalType": "uint256",
          "name": "_offerPriceDecrement",
          "type": "uint256"
        }
      ],
      "stateMutability": "nonpayable",
      "type": "constructor"
    },
    {
      "inputs": [],
      "name": "auctionEnded",
      "outputs": [
        {
          "internalType": "bool",
          "name": "",
          "type": "bool"
        }
      ],
      "stateMutability": "view",
      "type": "function"
    },
    {
      "inputs": [],
      "name": "currentPrice",
      "outputs": [
        {
          "internalType": "uint256",
          "name": "",
          "type": "uint256"
        }
      ],
      "stateMutability": "view",
      "type": "function"
    },
    {
      "inputs": [],
      "name": "endBlock",
      "outputs": [
        {
          "internalType": "uint256",
          "name": "",
          "type": "uint256"
        }
      ],
      "stateMutability": "view",
      "type": "function"
    },
    {
      "inputs": [],
      "name": "numBlocksAuctionOpen",
      "outputs": [
        {
          "internalType": "uint256",
          "name": "",
          "type": "uint256"
        }
      ],
      "stateMutability": "view",
      "type": "function"
    },
    {
      "inputs": [],
      "name": "offerPriceDecrement",
      "outputs": [
        {
          "internalType": "uint256",
          "name": "",
          "type": "uint256"
        }
      ],
      "stateMutability": "view",
      "type": "function"
    },
    {
      "inputs": [],
      "name": "placeBid",
      "outputs": [],
      "stateMutability": "payable",
      "type": "function"
    },
    {
      "inputs": [],
      "name": "reservePrice",
      "outputs": [
        {
          "internalType": "uint256",
          "name": "",
          "type": "uint256"
        }
      ],
      "stateMutability": "view",
      "type": "function"
    },
    {
      "inputs": [],
      "name": "seller",
      "outputs": [
        {
          "internalType": "address payable",
          "name": "",
          "type": "address"
        }
      ],
      "stateMutability": "view",
      "type": "function"
    },
    {
      "inputs": [],
      "name": "startBlock",
      "outputs": [
        {
          "internalType": "uint256",
          "name": "",
          "type": "uint256"
        }
      ],
      "stateMutability": "view",
      "type": "function"
    }
  ],
  "bytecode": "0x60806040523480156200001157600080fd5b50604051620009e9380380620009e98339818101604052810190620000379190620001f2565b62000053671121ade41a43808a60c01b620001af60201b60201c565b6200006f6754a051dd459d196e60c01b620001af60201b60201c565b336000806101000a81548173ffffffffffffffffffffffffffffffffffffffff021916908373ffffffffffffffffffffffffffffffffffffffff160217905550620000cb677f6b5a33147f882c60c01b620001af60201b60201c565b82600181905550620000ee673bd573c37d4f45e760c01b620001af60201b60201c565b816002819055506200011167ae3414c3899122b260c01b620001af60201b60201c565b80600381905550620001346716375c0c312feffd60c01b620001af60201b60201c565b43600481905550620001576795ddc0a168ccac7f60c01b620001af60201b60201c565b6002546004546200016991906200027d565b6005819055506200018b674ee7178c85079f4360c01b620001af60201b60201c565b6000600760006101000a81548160ff021916908315150217905550505050620002b8565b50565b600080fd5b6000819050919050565b620001cc81620001b7565b8114620001d857600080fd5b50565b600081519050620001ec81620001c1565b92915050565b6000806000606084860312156200020e576200020d620001b2565b5b60006200021e86828701620001db565b93505060206200023186828701620001db565b92505060406200024486828701620001db565b9150509250925092565b7f4e487b7100000000000000000000000000000000000000000000000000000000600052601160045260246000fd5b60006200028a82620001b7565b91506200029783620001b7565b9250828201905080821115620002b257620002b16200024e565b5b92915050565b61072180620002c86000396000f3fe6080604052600436106100865760003560e01c8063864333741161005957806386433374146101375780639d1b464a14610162578063d3642a881461018d578063db2e1eed146101b8578063ecfc7ecc146101e357610086565b8063083c63231461008b57806308551a53146100b65780633103ea62146100e157806348cd4cb11461010c575b600080fd5b34801561009757600080fd5b506100a06101ed565b6040516100ad91906104e8565b60405180910390f35b3480156100c257600080fd5b506100cb6101f3565b6040516100d89190610544565b60405180910390f35b3480156100ed57600080fd5b506100f6610217565b60405161010391906104e8565b60405180910390f35b34801561011857600080fd5b5061012161021d565b60405161012e91906104e8565b60405180910390f35b34801561014357600080fd5b5061014c610223565b604051610159919061057a565b60405180910390f35b34801561016e57600080fd5b50610177610236565b60405161018491906104e8565b60405180910390f35b34801561019957600080fd5b506101a261023c565b6040516101af91906104e8565b60405180910390f35b3480156101c457600080fd5b506101cd610242565b6040516101da91906104e8565b60405180910390f35b6101eb610248565b005b60055481565b60008054906101000a900473ffffffffffffffffffffffffffffffffffffffff1681565b60025481565b60045481565b600760009054906101000a900460ff1681565b60065481565b60035481565b60015481565b61025c67e3dd336ace77595c60c01b6104cc565b610270677ba65d7611b0198260c01b6104cc565b610284671d1387ba874b716060c01b6104cc565b610298674f3115955bf118cc60c01b6104cc565b600760009054906101000a900460ff16156102e8576040517f08c379a00000000000000000000000000000000000000000000000000000000081526004016102df906105f2565b60405180910390fd5b6102fc675ac5818c4a7d2c7760c01b6104cc565b6103106728a98edf5897c40e60c01b6104cc565b600354436005546103219190610641565b61032b9190610675565b60015461033891906106b7565b600681905550610352670303bbbc1801500860c01b6104cc565b6103666708d29e9e7dd4f33e60c01b6104cc565b60065434106104465761038367e035d1e089f7f83960c01b6104cc565b6103976782a218150fe7c7d460c01b6104cc565b6001600760006101000a81548160ff0219169083151502179055506103c667541020b2e368b6a460c01b6104cc565b6103da6776878bdfe8a0bde860c01b6104cc565b60008054906101000a900473ffffffffffffffffffffffffffffffffffffffff1673ffffffffffffffffffffffffffffffffffffffff166108fc349081150290604051600060405180830381858888f19350505050158015610440573d6000803e3d6000fd5b506104ca565b61045a67c2f49f1bd5efec1e60c01b6104cc565b61046e67dbe6100fef3d5df460c01b6104cc565b61048267fcff5eb1d6a63a9460c01b6104cc565b3373ffffffffffffffffffffffffffffffffffffffff166108fc349081150290604051600060405180830381858888f193505050501580156104c8573d6000803e3d6000fd5b505b565b50565b6000819050919050565b6104e2816104cf565b82525050565b60006020820190506104fd60008301846104d9565b92915050565b600073ffffffffffffffffffffffffffffffffffffffff82169050919050565b600061052e82610503565b9050919050565b61053e81610523565b82525050565b60006020820190506105596000830184610535565b92915050565b60008115159050919050565b6105748161055f565b82525050565b600060208201905061058f600083018461056b565b92915050565b600082825260208201905092915050565b7f41756374696f6e2068617320656e646564000000000000000000000000000000600082015250565b60006105dc601183610595565b91506105e7826105a6565b602082019050919050565b6000602082019050818103600083015261060b816105cf565b9050919050565b7f4e487b7100000000000000000000000000000000000000000000000000000000600052601160045260246000fd5b600061064c826104cf565b9150610657836104cf565b925082820390508181111561066f5761066e610612565b5b92915050565b6000610680826104cf565b915061068b836104cf565b9250828202610699816104cf565b915082820484148315176106b0576106af610612565b5b5092915050565b60006106c2826104cf565b91506106cd836104cf565b92508282019050808211156106e5576106e4610612565b5b9291505056fea2646970667358221220e8f423239cf4e47001804ae37c7527d0c73180b06cd3cee26bfd93c27674090764736f6c63430008120033",
  "linkReferences": {},
  "deployedLinkReferences": {}
}